:100000000C9463000C948B000C948B000C948B006C
:100010000C948B000C948B000C948B000C948B0034
:100020000C948B000C948B000C948B000C946D073B
:100030000C948B000C948B000C948B000C948B0014
:100040000C9423070C948B000C94F1060C94CB06B3
:100050000C948B000C948B000C948B000C948B00F4
:100060000C948B000C948B000000000024002700EF
:100070002A0000000000250028002B0000000000DE
:1000800023002600290004040404040404040202DA
:100090000202020203030303030301020408102007
:1000A0004080010204081020010204081020000012
:1000B0000008000201000003040700000000000027
:1000C00000002908E20B11241FBECFEFD8E0DEBFED
:1000D000CDBF11E0A0E0B1E0E0E2F6E202C00590A1
:1000E0000D92AE3CB107D9F722E0AEECB1E001C011
:1000F0001D92A13DB207E1F710E0C2E6D0E004C0D6
:100100002197FE010E94540EC136D107C9F70E9403
:10011000B5080C9403130C940000AF92BF92CF92D9
:10012000DF92EF92FF920F931F93CF93DF936C01B7
:100130007B018B01040F151FEB015E01AE18BF0898
:10014000C017D10759F06991D601ED91FC9101904A
:10015000F081E02DC6010995892B79F7C501DF9162
:10016000CF911F910F91FF90EF90DF90CF90BF90B4
:10017000AF900895FC01538D448D252F30E0842FDE
:1001800090E0821B930B541710F0CF9608950197BF
:100190000895FC01918D828D981761F0A28DAE0FAC
:1001A000BF2FB11D5D968C91928D9F5F9F73928F33
:1001B00090E008958FEF9FEF0895FC01918D828D5F
:1001C000981731F0828DE80FF11D858D90E008952C
:1001D0008FEF9FEF0895FC01918D228D892F90E084
:1001E000805C9F4F821B91098F73992708958FED33
:1001F00091E00E94EB0021E0892B09F420E0822F9E
:100200000895FC01A48DA80FB92FB11DA35ABF4FAB
:100210002C91848D90E001968F739927848FA68905
:10022000B7892C93A089B1898C91837080648C9359
:10023000938D848D981306C00288F389E02D808108
:100240008F7D80830895EF92FF920F931F93CF933A
:10025000DF93EC0181E0888F9B8D8C8D98131AC001
:10026000E889F989808185FF15C09FB7F894EE89E8
:10027000FF896083E889F989808183708064808345
:100280009FBF81E090E0DF91CF911F910F91FF9090
:10029000EF900895F62E0B8D10E00F5F1F4F0F7338
:1002A0001127E02E8C8D8E110CC00FB607FCFACFF3
:1002B000E889F989808185FFF5CFCE010E9401018F
:1002C000F1CFEB8DEC0FFD2FF11DE35AFF4FF082C4
:1002D0009FB7F8940B8FEA89FB8980818062CFCF2A
:1002E000CF93DF93EC01888D8823B9F0AA89BB896D
:1002F000E889F9898C9185FD03C0808186FD0DC058
:100300000FB607FCF7CF8C9185FFF2CF808185FF78
:10031000EDCFCE010E940101E9CFDF91CF91089589
:10032000833081F028F4813099F08230A9F008956B
:100330008730A9F08830C9F08430B1F48091800012
:100340008F7D03C0809180008F7780938000089517
:1003500084B58F7784BD089584B58F7DFBCF809160
:10036000B0008F778093B00008958091B0008F7DAA
:10037000F9CFCF93DF93282F30E0F901E255FF4FFB
:100380008491F901E656FF4FD491F901EA57FF4FE6
:10039000C491CC23A1F081110E949001EC2FF0E0D8
:1003A000EE0FFF1FE458FF4FA591B491EC91ED23A0
:1003B00081E090E009F480E0DF91CF91089580E042
:1003C00090E0FACF1F93CF93DF93282F30E0F9010D
:1003D000E255FF4F8491F901E656FF4FD491F901A0
:1003E000EA57FF4FC491CC23A9F0162F81110E9428
:1003F0009001EC2FF0E0EE0FFF1FEE58FF4FA5919C
:10040000B4918FB7F894EC91111108C0D095DE2308
:10041000DC938FBFDF91CF911F910895DE2BF8CF32
:10042000CF93DF9390E0FC01E656FF4F24918A576B
:100430009F4FFC0184918823D1F090E0880F991F91
:10044000FC01E859FF4FA591B491FC01EE58FF4F14
:10045000C591D49161110EC09FB7F8948C91E22F91
:10046000E0958E238C932881E223E8839FBFDF9160
:10047000CF9108958FB7F894EC91E22BEC938FBF56
:10048000F6CFCF93DF93EC01A881B981EB01E8812E
:10049000F9811097F1F03097B1F4EC018C819D81D6
:1004A000892BC9F08C9190E00BC0DB0114968D91E3
:1004B0009C91892B81F0808190E0919581959109A3
:1004C000DF91CF910895BF01CD01DF91CF910C94C1
:1004D0004510309751F790E080E0F2CF0F931F93D3
:1004E000CF93DF93EC0188819981009759F02A819D
:1004F0003B812617370730F081E0DF91CF911F91C4
:100500000F9108958B016F5F7F4F0E947F0F0097BF
:1005100059F0998388831B830A832C813D81232B87
:1005200059F7FC011082E8CF80E0E7CFEF92FF920D
:100530000F931F93CF93DF936115710541F480E012
:10054000DF91CF911F910F91FF90EF90089541158A
:100550005105B1F07B01EC010C811D81040F151FC9
:10056000B8010E946E02882351F3288139818C8161
:100570009D81B701820F931F0E944E101D830C8333
:1005800081E0DECFCF93DF9300D0CDB7DEB76983B4
:100590001A8241E050E0BE016F5F7F4F0E949602D9
:1005A0000F900F90DF91CF910895CF93DF93EC01DF
:1005B00088819981009711F00E94F60E19821882A5
:1005C0001D821C821B821A82DF91CF910895CF93E6
:1005D000DF93EC01FB0101900020E9F73197AF01B7
:1005E000461B570B0E949602811103C0CE010E9448
:1005F000D502CE01DF91CF910895CF93DF93EC0127
:10060000FB0144815581608171810E9496028111B4
:1006100003C0CE010E94D502CE01DF91CF91089593
:10062000EF92FF920F931F93CF93DF93EC017B0127
:100630008A01BA010E946E0281110BC0CE010E9494
:10064000D502CE01DF91CF911F910F91FF90EF90D6
:1006500008951D830C83B701888199810E944E10F3
:10066000F0CFFB0101900020E9F73197AF01461B65
:10067000570B0C9410030F931F93CF93DF93CDB7B9
:10068000DEB762970FB6F894DEBF0FBECDBF8C0108
:10069000CB01F8011182108213821282158214821A
:1006A0004AE0BE016F5F7F4F0E945F0DBE016F5F2A
:1006B0007F4FC8010E94310362960FB6F894DEBFE7
:1006C0000FBECDBFDF91CF911F910F910895CF93B2
:1006D000DF93EC01FB018617970749F06081718178
:1006E0006115710541F0448155810E941003CE01CE
:1006F000DF91CF9108950E94D502F9CFFC011182BC
:10070000108213821282158214820C946703CF9395
:10071000DF93EC010E947E03CE01DF91CF9108951B
:10072000EF92FF920F931F93CF93DF93EC017B0126
:10073000198218821B821A821D821C8288E090E036
:100740000E945A0E8C01B7010E947E03F701868138
:100750009781F801978386831D830C83DF91CF9166
:100760001F910F91FF90EF900895FC01118210826C
:100770001382128215821482FB0101900020E9F796
:100780003197AF01461B570B0C941003FC0180817D
:100790009181009711F00C94F60E0895AF92BF92DC
:1007A000CF92DF92EF92FF920F931F93CF93DF933D
:1007B000CDB7DEB72E970FB6F894DEBF0FBECDBF14
:1007C0008C016B018091A5029091A602D80112962E
:1007D0009C938E931197D8011196ED91FC91809185
:1007E000A7029091A8028E179F0779F1A090AC0202
:1007F000B090AD02E480F580B701CE0101960E9471
:100800007E03F7018681978198878F83BE016F5F92
:100810007F4FCE010996F5010995B601CE010996E3
:100820000E9441027C01CE0109960E94C603CE01BE
:1008300001960E94C603F7FE08C0D8011196ED91FB
:10084000FC91129782819381C2CFC8012E960FB678
:10085000F894DEBF0FBECDBFDF91CF911F910F91F6
:10086000FF90EF90DF90CF90BF90AF9008950F93DF
:100870001F93CF93DF9300D000D000D0CDB7DEB769
:100880008C016FEB72E0CE0101960E947E03B801ED
:10089000CE0101960E94FD0269E171E00E94E7022B
:1008A000BC018FEB92E00E946703CE0101960E948B
:1008B000C60326960FB6F894DEBF0FBECDBFDF91FC
:1008C000CF911F910F910895CF92DF92EF92FF92F7
:1008D000CF93DF93CDB7DEB762970FB6F894DEBF44
:1008E0000FBECDBFA091DC01B091DD0124EB30E063
:1008F0000E944D0E2EE531E040E050E00E94C90D0F
:10090000C901203242E034070CF03DC02091A20220
:10091000E8E8CE2ED12CC21AD10827FDD394CC0CF6
:10092000DD1CCC0CDD1C0D2C000CEE08FF0820910A
:10093000A30248E552E0421B510927FD5395440F9D
:10094000551F440F551F052E000C660B770B9A019F
:10095000AB012C193D094E095F09DC01853B91056E
:1009600014F0A4EBB0E0B7FF02C0B0E0A0E00E943A
:10097000F30D24EB30E040E050E00E94C90D2C0D57
:100980003D1D4E1D5F1DE091A102EC3080F54091B0
:10099000A20288E890E0841B910947FD9395880F97
:1009A000991F880F991F2817390784F04091A302D7
:1009B00088E592E0841B910947FD9395880F991F64
:1009C000880F991F281739070CF4C9010297880F5F
:1009D000991F4FB7F8942E2F30E0F901EE0FFF1F4B
:1009E000E20FF31FE458FD4F928381834FBF6BE109
:1009F00071E0CE0101960E94B503CE0101960E94DE
:100A00003704CE0101960E94C603E090DC01F0900D
:100A1000DD018091D0019091D1018E159F0571F07B
:100A20006EE271E0CE0101960E94B503CE010196FF
:100A30000E943704CE0101960E94C60380910001F6
:100A400061E471E0811102C066E571E0CE010196BA
:100A50000E94B503CE0101960E943704CE01019693
:100A60000E94C6036BE671E0E114F10449F06CE703
:100A700071E08EE5E81681E0F80611F06DE871E0AE
:100A8000CE0101960E94B503CE0101960E94370463
:100A9000CE0101960E94C6038091CE019091CF01B4
:100AA00001969093CF018093CE01B701CE010796B6
:100AB0000E943B0360EA71E0CE0101960E94B503FB
:100AC000BE01695F7F4FCE0101960E94FD026CE27C
:100AD00071E00E94E702BC01CE010D960E947E03E8
:100AE000CE010D960E943704CE010D960E94C603DA
:100AF000CE0101960E94C603CE0107960E94C6034E
:100B00006091CE017091CF01CE0107960E943B0308
:100B10006CEA71E0CE0101960E94B503BE01695FE7
:100B20007F4FCE0101960E94FD026CE271E00E94AF
:100B3000E702BC01CE010D960E947E03CE010D9608
:100B40000E943704CE010D960E94C603CE01019685
:100B50000E94C603CE0107960E94C6038091DC0165
:100B60009091DD019093D1018093D00162960FB6F0
:100B7000F894DEBF0FBECDBFDF91CF91FF90EF9015
:100B8000DF90CF900895CF93C1E08FED91E00E9468
:100B9000EB00892B09F4F7C08091AE029091AF026F
:100BA000892B09F054C02FB7F8948091D801909107
:100BB000D901A091DA01B091DB012FBF8093C5026A
:100BC0009093C602A093C702B093C8026BEA71E08B
:100BD00083EB92E00E9431038FED91E00E94C90007
:100BE000682F8091AE029091AF029C012F5F3F4F22
:100BF0003093AF022093AE028330910508F0BDC060
:100C000051E0663609F450E02430310519F441E032
:100C1000653609F440E0511103C0442309F45EC075
:100C20001092AF021092AE021092B1021092B00276
:100C30006BEA71E083EB92E00E9431036BEA71E0B2
:100C400089EB92E00E9431031092B2029ECF809114
:100C5000C5029091C602A091C702B091C802845DFE
:100C60009E4FAF4FBF4F2FB7F8944091D80150918E
:100C7000D9016091DA017091DB012FBF84179507CC
:100C8000A607B70708F0A8CF6BEA71E089EB92E0FE
:100C90000E9431031092AF021092AE021092B10284
:100CA0001092B0026BEA71E083EB92E00E94310394
:100CB0001092B2022FB7F8948091D8019091D90187
:100CC000A091DA01B091DB012FBF8093C502909310
:100CD000C602A093C702B093C8027ECF04970297C2
:100CE00020F51092B20289EB92E00E94C20280913C
:100CF000AE029091AF02069709F047CF40E150E075
:100D000070E060E08091B9029091BA020E943F0CBD
:100D10006A5F7F4F7093B1026093B0026BEA71E03B
:100D200089EB92E00E94310330CF2730310508F47F
:100D30002CCF8091B0029091B1022817390738F476
:100D40001092B20283EB92E00E94C2021ECF9093F7
:100D5000AF028093AE02892B09F417CF83EB92E0A8
:100D60000E94C2021092AF021092AE021092B10223
:100D70001092B002C093B20208CF2430310509F0BE
:100D8000ADCF50E044CFCF9108950E94F70081117C
:100D90000C94C30508951F920F920FB60F92112461
:100DA0002F933F934F935F936F937F938F939F9373
:100DB000AF93BF93EF93FF938FED91E00E940101FA
:100DC000FF91EF91BF91AF919F918F917F916F9123
:100DD0005F914F913F912F910F900FBE0F901F90F9
:100DE00018951F920F920FB60F9211242F938F9385
:100DF0009F93EF93FF93E091EF01F091F0018081D9
:100E0000E091F501F091F60182FD1BC09081809187
:100E1000F8018F5F8F732091F901821741F0E09103
:100E2000F801F0E0E152FE4F958F8093F801FF91B9
:100E3000EF919F918F912F910F900FBE0F901F9068
:100E400018958081F4CF1F920F920FB60F92112444
:100E50002F933F938F939F93AF93BF938091D8012C
:100E60009091D901A091DA01B091DB013091D701C5
:100E700023E0230F2D3758F50196A11DB11D2093B6
:100E8000D7018093D8019093D901A093DA01B09350
:100E9000DB018091D3019091D401A091D501B09153
:100EA000D6010196A11DB11D8093D3019093D40169
:100EB000A093D501B093D601BF91AF919F918F912F
:100EC0003F912F910F900FBE0F901F90189526E81D
:100ED000230F0296A11DB11DD2CF1F920F920FB604
:100EE0000F9211242F933F934F935F936F937F93B0
:100EF0008F939F93AF93BF93CF93DF93EF93FF9322
:100F00008091D201C091A002D0E087FF24C010924E
:100F10008500109284008091D2018F5F8093D2016E
:100F20008091D201082E000C990B8C179D0724F498
:100F30008091D2018C30C4F1809184009091850021
:100F4000049680349C4908F47AC080918400909182
:100F50008500049676C08091D201082E000C990B72
:100F60008C179D07C4F6E091D2018E2FEE0F990BDE
:100F7000FC01EE0FFF1FE80FF91FE458FD4F8081C1
:100F800086FFC9CFE091D2018E2FEE0F990BFC01A5
:100F9000EE0FFF1FE80FF91FE458FD4F808160E05E
:100FA0008F730E94E201B7CF2091840030918500B9
:100FB000E091D2018E2FEE0F990BFC01EE0FFF1F77
:100FC000E80FF91FE458FD4F81819281820F931F32
:100FD0009093890080938800E091D2018E2FEE0FCC
:100FE000990BFC01EE0FFF1FE80FF91FE458FD4FAE
:100FF000808186FF11C0E091D2018E2FEE0F990BF8
:10100000FC01EE0FFF1FE80FF91FE458FD4F808130
:1010100061E08F730E94E201FF91EF91DF91CF9128
:10102000BF91AF919F918F917F916F915F914F9100
:101030003F912F910F900FBE0F901F90189580E455
:101040009CE990938900809388008FEF8093D20170
:10105000E3CF1092E2011092E10188EE93E0A0E06C
:10106000B0E08093E3019093E401A093E501B09395
:10107000E6018BE091E09093E0018093DF0185EC45
:1010800090E09093EC018093EB0184EC90E09093DE
:10109000EE018093ED0180EC90E09093F00180935D
:1010A000EF0181EC90E09093F2018093F10182ECEA
:1010B00090E09093F4018093F30186EC90E090939C
:1010C000F6018093F5011092F8011092F901109247
:1010D000FA011092FB011092AA021092A90286E076
:1010E00090E00E945A0EFC0111821082138212823B
:1010F000158214829093A6028093A5029093A80271
:101100008093A70287E893E09093AD028093AC02AE
:101110006BEA71E083EB92E00E94B5036BEA71E049
:1011200089EB92E00E94B5036BEA71E08FEB92E0ED
:101130000E94B5038091A0028C3098F491E0980F42
:101140009093A0028093A10290E0FC01EE0FFF1F9C
:10115000E80FF91FE458FD4F88EB9BE092838183F1
:1011600008958FEF8093A1020895CF93DF93CDB7B9
:10117000DEB7E0970FB6F894DEBF0FBECDBF789410
:1011800084B5826084BD84B5816084BD85B582608C
:1011900085BD85B5816085BD80916E00816080933D
:1011A0006E001092810080918100826080938100A6
:1011B00080918100816080938100809180008160B6
:1011C000809380008091B10084608093B100809111
:1011D000B00081608093B00080917A008460809339
:1011E0007A0080917A00826080937A0080917A0000
:1011F000816080937A0080917A00806880937A0081
:101200001092C10060E082E00E94100260E083E082
:101210000E94100260E084E00E94100260E085E01D
:101220000E94100261E086E00E94100261E087E007
:101230000E94100284E694E09093CA028093C9024F
:101240008091A1028C3008F051C061E089E00E94D9
:1012500010028091A102282F30E0F901EE0FFF1F4C
:10126000E20FF31FE458FD4F9081907C99609083CA
:101270001092A2021092A3022CE0622F0E94410E53
:10128000829FB001112430E020E0AB01420F531FD8
:10129000FA01EE0FFF1FE40FF51FE458FD4F908198
:1012A00096FD16C02F5F3F4F2C30310571F781112D
:1012B0000FC01092800082E0809381001092850020
:1012C00010928400B19A80916F00826080936F00C9
:1012D000E091A1028E2F90E0FC01EE0FFF1FE80FBE
:1012E000F91FE458FD4F8081806480836FEF70E0C8
:1012F00083EB92E00E946E026BEA71E089EB92E070
:101300000E9431036BEA71E083EB92E00E943103AB
:101310006BEA71E08FEB92E00E9431031092B2020F
:101320001092B1021092B0021092AF021092AE026F
:101330001092C5021092C6021092C7021092C80203
:10134000E091EF01F091F00182E08083E091EB0108
:10135000F091EC011082E091ED01F091EE018FEC43
:1013600080831092F701E091F301F091F40186E09F
:101370008083E091F101F091F201808180618083AE
:10138000E091F101F091F201808188608083E09129
:10139000F101F091F201808180688083E091F10198
:1013A000F091F20180818F7D80837E0189E1E80EDA
:1013B000F11C66246394712C93ECA92E91E0B92E54
:1013C00023E0422E552453943EE5832E9924939492
:1013D0008091B2021092B202882309F46BC063EBD1
:1013E00072E0CE0101960E947E038D819E81892B41
:1013F00049F067EB71E089819A810E94451011E004
:10140000892B09F010E0CE0101960E94C60311233A
:1014100009F497C0E091C902F091CA0209956FEBF7
:1014200072E0CE0141960E947E038E898F938D8952
:101430008F93BF92AF921F924F92FF92EF920E94B2
:101440005510B701CE0109960E94B50368EC71E012
:10145000CE0101960E94B503BE01675F7F4FCE01AA
:1014600001960E94FD02BE016F5E7F4F0E94FD0249
:10147000DC0114964D915C9115976D917C918FEDE7
:1014800091E00E948D00CE0101960E94C603CE011C
:1014900009960E94C603CE0141960E94C6036BEADC
:1014A00071E08FEB92E00E9431030FB6F894DEBF3B
:1014B0000FBECDBF82E00E94B901019721F4909246
:1014C000DD018092DC0183E00E94B901019709F0FF
:1014D00070C18091DE0181116CC15092DE0180915A
:1014E000DC019091DD018456910997FD5DC19093D7
:1014F000DD018093DC0184E00E94B901019751F481
:101500005092000161E086E00E94E20160E087E025
:101510000E94E20185E00E94B901019751F4109206
:10152000000160E086E00E94E20161E087E00E9445
:10153000E2010E94F700882309F44ACF0E94C30504
:1015400034CF63EB72E0CE0185960E947E03BE012C
:101550006B5D7F4FCE018E960E94CE03EFA5F8A95A
:101560008091A7029091A8028E179F0741F0648195
:101570007581CE0185960E94410297FF6AC0BE0127
:101580006B5D7F4FCE0141960E947E03188E1F8AAD
:101590000091AC021091AD02BE016F5E7F4FCE0193
:1015A00001960E947E038F89988D98878F83BE0154
:1015B0006F5F7F4FCE010996F8010995BE01675F05
:1015C0007F4FCE018B960E94CE03CE0109960E94DA
:1015D000C603CE0101960E94C603ECA5FDA580912D
:1015E000A7029091A8028E179F0709F06AC0809108
:1015F000A9029091AA02892BD1F586E090E00E9481
:101600005A0E8C01BE016F5E7F4F0E9490031093B3
:10161000A6020093A502E091A702F091A80211830F
:101620000083D80111961C921E921396FC93EE93A0
:1016300012977092AA026092A902E091A702F0911B
:10164000A8020081118118AB0FA7CE0141960E941C
:10165000C603EFA5F8A90480F581E02D0680F78187
:10166000E02D0995CE0185960E94C60323CF86E022
:1016700090E00E945A0E8C01BE016F5E7F4F0E9467
:101680009003E091A702F091A80280819181D80196
:1016900011969C938E931396FC93EE931297A081D0
:1016A000B18113961C930E9312971183008380913E
:1016B000A9029091AA0201969093AA028093A9028E
:1016C000BCCFC090AC02D090AD0204811581B801AE
:1016D000CE0109960E947E03F80186819781988B3E
:1016E0008F87BE01675F7F4FCE014F96F601099548
:1016F0000091AC021091AD02BE016F5E7F4FCE0132
:1017000001960E947E038F89988D98878F83BE01F2
:101710006F5F7F4FC701F8010995BE01615E7F4F82
:10172000C7010E9441028C01C7010E94C603CE017D
:1017300001960E94C603CE014F960E94C603CE01B9
:1017400009960E94C603CCA4DDA417FF2BC086E037
:1017500090E00E945A0E8C01BE016F5E7F4F0E9486
:101760009003D6018D919C911197F801918380830C
:10177000D382C282892B89F41093A6020093A5021A
:10178000F601118300838091A9029091AA0201962B
:101790009093AA028093A90256CFED91FC911383F6
:1017A0000283EECF86014FCF1092DD011092DC0153
:1017B000A2CE83E00E94B901892B09F09CCE109241
:1017C000DE0199CECF93DF938FEB92E00E94C603A8
:1017D00089EB92E00E94C60383EB92E00E94C6036D
:1017E000E091A502F091A6028091A9029091AA022F
:1017F000892B71F10280F381E02DF093A602E09332
:10180000A5020190F081E02DC481D581209731F0AF
:10181000CE010E94C603CE010E94F60EE091A50201
:10182000F091A60280819181009711F00E94F60E3E
:10183000E091A502F091A602118210828091A90286
:101840009091AA0201979093AA028093A902C8CF0F
:10185000C481D581209731F0CE010E94C603CE010C
:101860000E94F60E8091A5029091A602009721F0A9
:10187000DF91CF910C94F60EDF91CF910895B0E0F7
:10188000A0E0E5E4FCE00C94FC0D5C016B017A0146
:101890006115710519F0FB0191838083E114F10456
:1018A00051F0C7010297839730F040E030E020E02C
:1018B00090E072C05E01E5012196F5011081812F53
:1018C00090E00E94560D892BA9F71D3201F5219653
:1018D000F501118101E0E114F10409F4DAC0F0E14D
:1018E000EF16F10409F082C0103359F488818F7D1E
:1018F000883509F076C0198122960260F0E1EF2E5A
:10190000F12C812C912CA12C88E0B82E8CC01B329C
:1019100021F4E5012296F501118100E0DCCFEAE037
:10192000EE16F10409F4BBC0F0E1EF16F10409F082
:101930006DC0E7CF78E0E72EF12C812C912CA12C03
:1019400060E1B62E70C03FE9310F3A3128F439EA30
:10195000332E80C021E09AC0302F3170C114D104E1
:1019600031F0222309F12197F601D183C08327FFAB
:1019700021C060E070E080E090E8311104C06FEFBA
:101980007FEF8FEF9FE722E230E03093CC0220938D
:10199000CB02462F372F282F642F732F822FCDB7DE
:1019A000DEB7E1E10C94180E01FF04C02297F601A6
:1019B000D183C083332341F09095809570956195D4
:1019C0007F4F8F4F9F4FE5CF97FFE3CF82E290E0AD
:1019D0009093CC028093CB026FEF7FEF8FEF9FE766
:1019E000D8CF10E3E114F10409F4A4CF28E0E21603
:1019F000F10409F4A2CF0CF092CF812C912CA12CF0
:101A0000E0E4BE2E82E0E816F10469F060E070E0E8
:101A100080E090E897010F2C000C440B550B0E94BE
:101A2000A70D49015A0120E060E070E0CB012701D9
:101A30000F2C000C66087708FE0150ED352E310E94
:101A400039E0331540F43FEB310F3A3108F07BCFEA
:101A500049EC342E310E3E141F040CF07DCF27FDCF
:101A600015C086169706A806B90678F0A30192015C
:101A70000E94970D630D711D811D911D61307105CF
:101A8000810520E8920708F465CF2FEF2196108199
:101A9000D3CF103309F42ACF2AE0E22EF12C9CECAC
:101AA000892E982CA82C9CE0B92EBDCF91110C94B6
:101AB000840D803219F089508550C8F70895BB27EE
:101AC0004A3031F4992322F4BDE2909581959F4FDD
:101AD0000C946B0DBB27FB015527AA27880F991F74
:101AE000AA1FA41710F0A41B83955051B9F7A05D4D
:101AF000AA3308F0A95DA193009779F7B111B193CA
:101B00001192CB010C94870D992788270895DC0149
:101B1000FC01672F71917723E1F7329704C07C9124
:101B20006D9370836291AE17BF07C8F30895DB0110
:101B30008F939F930E94E80DBF91AF91A29F800D5C
:101B4000911DA39F900DB29F900D11240895A1E2C5
:101B50001A2EAA1BBB1BFD010DC0AA1FBB1FEE1F27
:101B6000FF1FA217B307E407F50720F0A21BB30B72
:101B7000E40BF50B661F771F881F991F1A9469F7EE
:101B800060957095809590959B01AC01BD01CF014A
:101B90000895052E97FB1EF400940E94E00D57FD5A
:101BA00007D00E94A70D07FC03D04EF40C94E00D63
:101BB00050954095309521953F4F4F4F5F4F089579
:101BC00090958095709561957F4F8F4F9F4F0895A9
:101BD0000E94320EA59F900DB49F900DA49F800D82
:101BE000911D11240895B7FF0C94E80D0E94E80D93
:101BF000821B930B08952F923F924F925F926F92A8
:101C00007F928F929F92AF92BF92CF92DF92EF928C
:101C1000FF920F931F93CF93DF93CDB7DEB7CA1B0D
:101C2000DB0B0FB6F894DEBF0FBECDBF09942A8838
:101C3000398848885F846E847D848C849B84AA84E0
:101C4000B984C884DF80EE80FD800C811B81AA816D
:101C5000B981CE0FD11D0FB6F894DEBF0FBECDBF38
:101C6000ED010895A29FB001B39FC001A39F700D25
:101C7000811D1124911DB29F700D811D1124911D94
:101C80000895991B79E004C0991F961708F0961BD8
:101C9000881F7A95C9F7809508950E94320EB7FF84
:101CA0000895821B930B0895EE0FFF1F0590F4918A
:101CB000E02D09940F931F93CF93DF93823091050A
:101CC00010F482E090E0E091CF02F091D00230E099
:101CD00020E0B0E0A0E0309799F42115310509F437
:101CE0004AC0281B390B24303105D8F58A819B81E5
:101CF0006115710589F1FB0193838283FE0111C097
:101D0000408151810281138148175907E0F048173B
:101D1000590799F4109761F012960C931297139645
:101D20001C933296CF01DF91CF911F910F910895AF
:101D30000093CF021093D002F4CF2115310551F05A
:101D40004217530738F0A901DB019A01BD01DF01F9
:101D5000F801C1CFEF01F9CF9093D0028093CF0269
:101D6000CDCFFE01E20FF31F8193919322503109F1
:101D700039832883D7CF2091CD023091CE02232BF7
:101D800041F420910301309104013093CE0220935D
:101D9000CD0220910101309102012115310541F45C
:101DA0002DB73EB74091050150910601241B350B1C
:101DB000E091CD02F091CE02E217F307A0F42E1BC2
:101DC0003F0B2817390778F0AC014E5F5F4F24179F
:101DD000350748F04E0F5F1F5093CE024093CD025F
:101DE000819391939FCFF0E0E0E09CCFCF93DF937E
:101DF0000097E9F0FC01329713821282A091CF0282
:101E0000B091D002ED0130E020E01097A1F42081E4
:101E10003181820F931F2091CD023091CE0228177D
:101E2000390709F061C0F093CE02E093CD02DF9153
:101E3000CF910895EA01CE17DF07E8F54A815B816B
:101E40009E0141155105B1F7E901FB83EA834991F0
:101E50005991C40FD51FEC17FD0761F48081918162
:101E60000296840F951FE90199838883828193816B
:101E70009B838A83F0E0E0E012968D919C9113970A
:101E80000097B9F52D913C911197CD010296820FE3
:101E9000931F2091CD023091CE022817390739F6D1
:101EA000309751F51092D0021092CF02B093CE022B
:101EB000A093CD02BCCFD383C28340815181840FD4
:101EC000951FC817D90761F44E5F5F4F88819981CC
:101ED000480F591F518340838A819B81938382835A
:101EE0002115310509F0B0CFF093D002E093CF0275
:101EF0009ECFFD01DC01C0CF13821282D7CFB0E0AC
:101F0000A0E0E5E8FFE00C94FD0D8C01009751F492
:101F1000CB010E945A0E8C01C801CDB7DEB7E0E1BB
:101F20000C94190EFC01E60FF71F9C012250310999
:101F3000E217F30708F49DC0D901CD91DC91119708
:101F4000C617D70798F0C530D10530F3CE010497F6
:101F50008617970708F3C61BD70B2297C193D19317
:101F60006D937C93CF010E94F60ED6CF5B01AC1A25
:101F7000BD0A4C018C0E9D1EA091CF02B091D002E3
:101F8000512C412CF12CE12C109731F58091CD0290
:101F90009091CE028815990509F05CC04616570647
:101FA00008F058C08091010190910201009741F41E
:101FB0008DB79EB74091050150910601841B950B8A
:101FC000E817F90708F055C0F093CE02E093CD0270
:101FD000F90171836083A0CF8D919C911197129626
:101FE0006C90129713967C901397A815B90559F524
:101FF0006C0142E0C40ED11CCA14DB0420F1AC0118
:102000004A195B09DA011296159780F06282738291
:1020100051834083D9016D937C93E114F10471F0F5
:10202000D7011396FC93EE93129776CF22968C0FDE
:102030009D1FF90191838083F301EFCFF093D002CC
:10204000E093CF0269CF4816590608F42C017D01B0
:10205000D3019ACFCB010E945A0E7C01009749F020
:10206000AE01B8010E943C10C8010E94F60E870123
:1020700053CF10E000E050CFFB01DC0102C0019023
:102080000D9241505040D8F70895FB01DC018D912D
:10209000019080190110D9F3990B0895FB01DC011F
:1020A00001900D920020E1F70895AEE0B0E0EBE57D
:1020B000F0E10C94090E0D891E898F89988D26E018
:1020C0002C831A83098397FF02C080E090E8019770
:1020D0009E838D83AE01455E5F4F698D7A8DCE0103
:1020E00001960E9485104D815E8157FD0AC02F81A7
:1020F0003885421753070CF49A01020F131FF80199
:1021000010822E96E4E00C94250EABE0B0E0EBE8F4
:10211000F0E10C94FB0D7C013B018A01FC0117826C
:102120001682838181FFC8C1CE0101965C01F7014F
:102130009381F30193FD859193FF81913F01882362
:1021400009F453C1853239F493FD859193FF819150
:102150003F01853229F4B70190E00E947512E7CF64
:10216000912C212C312CFFE1F31538F08B3211F139
:1021700090F4803209F1833229F137FC3CC020ED24
:10218000280F2A3050F536FE20C08AE0989E200D98
:102190001124922E06C08D3291F0803371F768942D
:1021A00030F8F30193FD859193FF81913F018111F7
:1021B000DACF21C0689431F8689432F8F2CF68948D
:1021C00033F8EFCF689434F8ECCFEAE02E9E200D80
:1021D0001124222E689435F8E4CF8E3229F436FC8F
:1021E00004C1689436F8DDCF8C3619F4689437F85A
:1021F000D8CF8836B1F2982F9F7D95549330E0F078
:102200008336A1F18337C1F1833509F063C028011A
:10221000F2E04F0E511CF801C080D180692D70E0B2
:1022200036FC02C06FEF7FEFC6010E945F124C01C7
:10223000689437F882010AC00C5F1F4FFFE3F983EF
:1022400088248394912C6501E89437F833FE2DC0DF
:10225000522C8114910471F5552009F468CFB7010F
:1022600080E290E00E9475125A94F6CFF8018081C6
:1022700089830E5F1F4FE4CF2801F2E04F0E511CFF
:10228000F801C080D180692D70E036FC02C06FEF8C
:102290007FEFC6010E946A124C018201D5CFB701BF
:1022A00080E290E00E9475122A942814190409F023
:1022B000B0F7CECFF60137FC859137FE81916F01E3
:1022C000B70190E00E94751251105A94F1E08F1AF4
:1022D0009108BFCF843619F0893609F077C0F8012C
:1022E00037FE6BC060817181828193810C5F1F4FCB
:1022F000F32DFF763F2E97FF09C09095809570953E
:1023000061957F4F8F4F9F4F689437F82AE030E0F8
:10231000A5010E94A512C82ECA188C2C432C36FE8B
:102320000CC0E89440F8C91440F434FE05C032FCF7
:1023300003C0F32DFE7E4F2E892C44FE95C0FE0176
:10234000EC0DF11D8081803309F087C0242D297E9A
:10235000422E842D8870582E43FC95C040FE8FC0BD
:102360009C2C821418F42C0C922C981844FE91C0CA
:10237000B70180E390E00E94751242FE09C088E731
:1023800090E041FE02C088E590E0B7010E9475121E
:10239000C91408F48AC0CA94D12C9FEFC91AD90A6B
:1023A000CA0CDB1CF60182916F01B70190E00E941C
:1023B0007512AC14BD04B1F74FCF60817181072E47
:1023C000000C880B990B0E5F1F4F92CFD32CE89413
:1023D000D4F82AE030E0853739F1232D297FD22E39
:1023E0008F3601F148F48835A9F0F701868197818D
:1023F0002B96E2E10C94170E803749F08837A9F745
:10240000D4FE02C06894D2F820E130E00DC0689498
:10241000D4F8F6CF34FE03C0822F8660D82E20E198
:1024200032E002C028E030E0F801D7FE0FC0608142
:102430007181828193810C5F1F4FA5010E94A512BB
:10244000C82ECA183D2CE89437F867CF6081718197
:1024500090E080E00E5F1F4FF0CF42FC02C08394FB
:1024600078CF8394839475CF842D867809F471CFC7
:10247000F6CFB70180E290E00E9475128394821437
:10248000C0F3512C73CF522C5818821408F46ECF1D
:10249000F8CF842D867809F47BCF8BE241FE80E271
:1024A00047FC8DE2B70190E071CFB70180E390E087
:1024B0000E9475129A946CCF8FEF9FEF99CFFC0119
:1024C0000590615070400110D8F7809590958E0F5F
:1024D0009F1F0895FC016150704001900110D8F7D2
:1024E000809590958E0F9F1F08950F931F93CF9304
:1024F000DF93182F092FEB018B8181FD09C01FEF9E
:102500000FEF812F902FDF91CF911F910F910895A1
:1025100082FF14C02E813F818C819D81281739074D
:102520003CF4E881F981CF01019699838883108377
:102530008E819F8101969F838E83E3CFE885F98505
:10254000812F0995892BA1F3DACFFA01AA27283028
:1025500051F1203181F1E8946F936E7F6E5F7F4F70
:102560008F4F9F4FAF4FB1E03ED0B4E03CD0670FEC
:10257000781F891F9A1FA11D680F791F8A1F911D3F
:10258000A11D6A0F711D811D911DA11D20D009F48F
:1025900068943F912AE0269F11243019305D3193D1
:1025A000DEF6CF010895462F4770405D4193B3E0BA
:1025B0000FD0C9F7F6CF462F4F70405D4A3318F061
:1025C000495D31FD4052419302D0A9F7EACFB4E012
:1025D000A6959795879577956795BA95C9F70097CA
:1025E0006105710508959B01AC010A2E069457956B
:1025F000479537952795BA95C9F7620F731F841FC2
:10260000951FA01D089510E0C2E6D0E004C0FE01B1
:102610000E94540E2196C336D107C9F7F894FFCF14
:10262000010000D10280000000000023018D00BAEB
:10263000007001EB00C900DD003B00616C74657245
:102640006163616F4E6F506F746528302900616C53
:102650007465726163616F4E6F506F7465283129C4
:1026600000616E696D616C53656C6563696F6E6165
:10267000646F28312900616E696D616C53656C650A
:1026800063696F6E61646F28322900706F746552E0
:102690006163616F2876617A696F2900706F746574
:1026A000526163616F28636865696F2900706F7498
:1026B00065526163616F287061726369616C2900A2
:1026C000726163616F4E6976656C28006C6F6F7024
:1026D000436F756E7428006765745065726365702A
:0E26E00074730025303258006666666500008F
:00000001FF
